{
  "contractName": "Ballot",
  "abi": [
    {
      "inputs": [
        {
          "internalType": "bytes32[]",
          "name": "candidateNames",
          "type": "bytes32[]"
        }
      ],
      "stateMutability": "nonpayable",
      "type": "constructor"
    },
    {
      "inputs": [
        {
          "internalType": "uint256",
          "name": "",
          "type": "uint256"
        }
      ],
      "name": "proposals",
      "outputs": [
        {
          "internalType": "bytes32",
          "name": "name",
          "type": "bytes32"
        },
        {
          "internalType": "uint256",
          "name": "vote_count",
          "type": "uint256"
        }
      ],
      "stateMutability": "view",
      "type": "function"
    },
    {
      "inputs": [
        {
          "internalType": "address",
          "name": "",
          "type": "address"
        }
      ],
      "name": "voters",
      "outputs": [
        {
          "internalType": "bool",
          "name": "voted",
          "type": "bool"
        },
        {
          "internalType": "uint256",
          "name": "voted_candidate",
          "type": "uint256"
        }
      ],
      "stateMutability": "view",
      "type": "function"
    },
    {
      "inputs": [
        {
          "internalType": "uint256",
          "name": "candidate",
          "type": "uint256"
        }
      ],
      "name": "vote",
      "outputs": [],
      "stateMutability": "nonpayable",
      "type": "function"
    },
    {
      "inputs": [],
      "name": "countVotes",
      "outputs": [
        {
          "internalType": "uint256",
          "name": "winningProposal_",
          "type": "uint256"
        }
      ],
      "stateMutability": "view",
      "type": "function"
    },
    {
      "inputs": [],
      "name": "declareWinner",
      "outputs": [
        {
          "internalType": "bytes32",
          "name": "winnerName_",
          "type": "bytes32"
        }
      ],
      "stateMutability": "view",
      "type": "function"
    },
    {
      "inputs": [],
      "name": "getNumberOfCandidates",
      "outputs": [
        {
          "internalType": "uint256",
          "name": "candidatesCount_",
          "type": "uint256"
        }
      ],
      "stateMutability": "view",
      "type": "function"
    }
  ],
  "bytecode": "0x60806040523480156200001157600080fd5b5060405162000a8038038062000a8083398181016040528101906200003791906200029a565b60005b8151811015620000ce5760016040518060400160405280848481518110620000675762000066620002eb565b5b6020026020010151815260200160008152509080600181540180825580915050600190039060005260206000209060020201600090919091909150600082015181600001556020820151816001015550508080620000c59062000353565b9150506200003a565b5050620003a0565b6000604051905090565b600080fd5b600080fd5b600080fd5b6000601f19601f8301169050919050565b7f4e487b7100000000000000000000000000000000000000000000000000000000600052604160045260246000fd5b6200013a82620000ef565b810181811067ffffffffffffffff821117156200015c576200015b62000100565b5b80604052505050565b600062000171620000d6565b90506200017f82826200012f565b919050565b600067ffffffffffffffff821115620001a257620001a162000100565b5b602082029050602081019050919050565b600080fd5b6000819050919050565b620001cd81620001b8565b8114620001d957600080fd5b50565b600081519050620001ed81620001c2565b92915050565b60006200020a620002048462000184565b62000165565b9050808382526020820190506020840283018581111562000230576200022f620001b3565b5b835b818110156200025d5780620002488882620001dc565b84526020840193505060208101905062000232565b5050509392505050565b600082601f8301126200027f576200027e620000ea565b5b815162000291848260208601620001f3565b91505092915050565b600060208284031215620002b357620002b2620000e0565b5b600082015167ffffffffffffffff811115620002d457620002d3620000e5565b5b620002e28482850162000267565b91505092915050565b7f4e487b7100000000000000000000000000000000000000000000000000000000600052603260045260246000fd5b7f4e487b7100000000000000000000000000000000000000000000000000000000600052601160045260246000fd5b6000819050919050565b6000620003608262000349565b91507fffffffffffffffffffffffffffffffffffffffffffffffffffffffffffffffff82036200039557620003946200031a565b5b600182019050919050565b6106d080620003b06000396000f3fe608060405234801561001057600080fd5b50600436106100625760003560e01c80630121b93f14610067578063013cf08b1461008357806314034bd2146100b45780637a84d13e146100d2578063a3ec138d146100f0578063b647990a14610121575b600080fd5b610081600480360381019061007c91906103c0565b61013f565b005b61009d600480360381019061009891906103c0565b610257565b6040516100ab929190610415565b60405180910390f35b6100bc61028b565b6040516100c9919061043e565b60405180910390f35b6100da6102bf565b6040516100e79190610459565b60405180910390f35b61010a600480360381019061010591906104d2565b6102cc565b60405161011892919061051a565b60405180910390f35b6101296102fd565b6040516101369190610459565b60405180910390f35b60008060003373ffffffffffffffffffffffffffffffffffffffff1673ffffffffffffffffffffffffffffffffffffffff16815260200190815260200160002090508060000160009054906101000a900460ff16156101d3576040517f08c379a00000000000000000000000000000000000000000000000000000000081526004016101ca906105a0565b60405180910390fd5b60018160000160006101000a81548160ff021916908315150217905550818160010181905550600180838154811061020e5761020d6105c0565b5b90600052602060002090600202016001015461022a919061061e565b6001838154811061023e5761023d6105c0565b5b9060005260206000209060020201600101819055505050565b6001818154811061026757600080fd5b90600052602060002090600202016000915090508060000154908060010154905082565b600060016102976102fd565b815481106102a8576102a76105c0565b5b906000526020600020906002020160000154905090565b6000600180549050905090565b60006020528060005260406000206000915090508060000160009054906101000a900460ff16908060010154905082565b6000806000905060005b600180549050811015610380578160018281548110610329576103286105c0565b5b906000526020600020906002020160010154111561036d5760018181548110610355576103546105c0565b5b90600052602060002090600202016001015491508092505b808061037890610652565b915050610307565b505090565b600080fd5b6000819050919050565b61039d8161038a565b81146103a857600080fd5b50565b6000813590506103ba81610394565b92915050565b6000602082840312156103d6576103d5610385565b5b60006103e4848285016103ab565b91505092915050565b6000819050919050565b610400816103ed565b82525050565b61040f8161038a565b82525050565b600060408201905061042a60008301856103f7565b6104376020830184610406565b9392505050565b600060208201905061045360008301846103f7565b92915050565b600060208201905061046e6000830184610406565b92915050565b600073ffffffffffffffffffffffffffffffffffffffff82169050919050565b600061049f82610474565b9050919050565b6104af81610494565b81146104ba57600080fd5b50565b6000813590506104cc816104a6565b92915050565b6000602082840312156104e8576104e7610385565b5b60006104f6848285016104bd565b91505092915050565b60008115159050919050565b610514816104ff565b82525050565b600060408201905061052f600083018561050b565b61053c6020830184610406565b9392505050565b600082825260208201905092915050565b7f416c726561647920766f74656400000000000000000000000000000000000000600082015250565b600061058a600d83610543565b915061059582610554565b602082019050919050565b600060208201905081810360008301526105b98161057d565b9050919050565b7f4e487b7100000000000000000000000000000000000000000000000000000000600052603260045260246000fd5b7f4e487b7100000000000000000000000000000000000000000000000000000000600052601160045260246000fd5b60006106298261038a565b91506106348361038a565b925082820190508082111561064c5761064b6105ef565b5b92915050565b600061065d8261038a565b91507fffffffffffffffffffffffffffffffffffffffffffffffffffffffffffffffff820361068f5761068e6105ef565b5b60018201905091905056fea26469706673582212201f8632f53d988a9d0b2ad669105f6c26be94c0eff576dbf3cb56a26cda2d1da264736f6c63430008110033",
  "immutableReferences": {},
  "source": "// SPDX-License-Identifier: MIT\npragma solidity >=0.7.0 <0.9.0;\n\ncontract Ballot {\n\n  struct Proposal {\n    bytes32 name;\n    uint vote_count;\n  }\n\n  struct Voter {\n    bool voted;\n    uint voted_candidate;\n  }\n\n  mapping(address => Voter) public voters;\n\n  Proposal[] public proposals;\n\n  constructor(bytes32[] memory candidateNames) {\n    for (uint i = 0; i < candidateNames.length; i++) {\n      proposals.push(\n        Proposal({\n          name: candidateNames[i],\n          vote_count: 0\n    })\n      );\n    }\n  }\n\n  function vote(uint candidate) public {\n    Voter storage sender = voters[msg.sender];\n    require(!sender.voted, \"Already voted\");\n    sender.voted = true;\n    sender.voted_candidate = candidate;\n\n    proposals[candidate].vote_count = proposals[candidate].vote_count + 1;\n  }\n\n  function countVotes() public view returns(uint winningProposal_){\n    uint winningVoteCount = 0;\n    for (uint p = 0; p < proposals.length; p++) {\n        if (proposals[p].vote_count > winningVoteCount) {\n            winningVoteCount = proposals[p].vote_count;\n            winningProposal_ = p;\n        }\n    }\n  }\n\n  function declareWinner() external view returns(bytes32 winnerName_) {\n    winnerName_ = proposals[countVotes()].name;\n  }\n\n  function getNumberOfCandidates() external view returns(uint candidatesCount_) {\n    candidatesCount_ = proposals.length;\n  }\n}\n",
  "sourcePath": "C:\\Users\\Rupayan\\Documents\\Blockchain\\Etherium\\voting_system\\contracts\\Ballot.sol",
  "compiler": {
    "name": "solc",
    "version": "0.8.17+commit.8df45f5f.Emscripten.clang"
  },
  "schemaVersion": "3.4.10",
  "updatedAt": "2022-10-09T06:38:20.428Z",
  "devdoc": {
    "kind": "dev",
    "methods": {},
    "version": 1
  },
  "userdoc": {
    "kind": "user",
    "methods": {},
    "version": 1
  }
}